:1000000024C048C0B0C55DC545C044C043C042C05F
:1000100041C040C03FC00BC53DC03CC03BC03AC022
:1000200039C038C037C036C035C034C033C032C024
:1000300031C030C02FC02EC02DC003C601020480C5
:100040004020100804020108300711241FBECFEF22
:10005000D2E0DEBFCDBF11E0A0E0B1E0E6EDF4E11B
:1000600002C005900D92A435B107D9F721E0A4E5AF
:10007000B1E001C01D92AD3BB207E1F710E0C5E26F
:10008000D0E003C02197FE011EDAC432D107D1F7B8
:10009000FED61FCAB5CF0895E82FF0E0E45CFF4F0D
:1000A000E491A9E3B0E0833048F4823029F48091F0
:1000B000CA008F738093CA00A6E3B0E08C91E82356
:1000C00081E090E019F490E080E008950895CF93E6
:1000D000DF93E82FF0E0E45CFF4FE491833050F0D1
:1000E000863021F580B78F7380BFCBE3D0E0A3E6E5
:1000F000B0E00CC092E08530D9F480B78F7C80BF2F
:10010000C8E3D0E0A2E6B0E0913079F39E2F90955D
:100110002FB7611126C0F8948881892388838C9138
:1001200089238C932FBFDF91CF91089591E0E3CF86
:10013000843021F48FB58F738FBDE2CF873019F4EF
:100140008FB58F7CF9CF823031F48091CA008F73E4
:100150008093CA00D5CF833099F68091CA008F7CF6
:10016000F7CFF8948881E82BE883D9CFCF93DF933A
:10017000E82FF0E0E45CFF4FE49128E330E0A7E3F0
:10018000B0E0C2E6D0E0833030F02BE330E0AAE309
:10019000B0E0C3E6D0E09E2F9095623081F44FB777
:1001A000F8948C9189238C93D9018C918E2B8C930C
:1001B0008881E82BE8834FBFDF91CF9108952FB757
:1001C000F8948881892388838C91E82BEC932FBF46
:1001D000F3CF0F931F93CF93C82F8B0161E0C6DF3E
:1001E0000115110531F460E08C2FCF911F910F9113
:1001F0006ECF0F3F110511F461E0F6CFC63049F420
:1002000080B78F73806880BF06BFCF911F910F9119
:100210000895C53031F480B78F7C806280BF0CBFF9
:10022000F4CFC73051F48FB58F7C80628FBD8FB70C
:10023000F89419BD08BD8FBFE8CF00381105E4F66A
:10024000D2CF3FB7F89480915E0190915F01A09169
:100250006001B091610122B708B600FE05C02F3FD2
:1002600019F00196A11DB11D3FBFBA2FA92F982FDC
:100270008827BC01CD01620F711D811D911D43E0D6
:10028000660F771F881F991F4A95D1F70895CF925F
:10029000DF92EF92FF92CF93DF936B017C01D1DF6E
:1002A000EB01CFDF6C1B7D0B683E7340A0F0C114E7
:1002B000D104E104F10439F4DF91CF91FF90EF9084
:1002C000DF90CF90089581E0C81AD108E108F108C5
:1002D000C851DC4FE6CFC114D104E104F10409F7A1
:1002E000EBCF2FB7F89460915A0170915B01809128
:1002F0005C0190915D012FBF0895CF93DF93DC01E6
:100300001C96ED91FC9126A137A12032310510F504
:10031000A6A1B7A1C6A1D7A120E230E02A1B3B0BC2
:100320004217530708F49A01DB01EC0FFD1FB901D6
:100330006E0F7F1FE617F70719F04D914193FACF23
:10034000DC011C96ED91FC9186A197A1280F391F25
:1003500037A326A3DF91CF910895DC011C96ED9180
:10036000FC9186A197A1809768F486A197A19C0132
:100370002F5F3F4F37A326A3E80FF91F608381E06B
:1003800090E0089590E080E008950895DC011C96C7
:10039000ED91FC9120A131A182A193A128173907E9
:1003A00038F480A191A1E80FF91F808190E00895B1
:1003B0008FEF9FEF0895DC011C96ED91FC9120A139
:1003C00031A182A193A12817390760F480A191A1DE
:1003D0009C012F5F3F4F31A320A3E80FF91F8081BD
:1003E00090E008958FEF9FEF0895DC011C96ED914A
:1003F000FC9182A193A120A131A1821B930B0895AE
:10040000CF93DF936EDFD0E0C0E0809158018C0F76
:100410009D2F911D4997F4F4E0915801EC0FFD2FA9
:10042000F11DE65EFE4F60818EEA91E096DF8091DD
:1004300058018C0F9D2F911D892B41F4E09158019B
:10044000EC0FFD2FF11DE65EFE4F10822196C430A9
:10045000D105D9F6DF91CF91089580912F0180FFCA
:1004600016C191E0909300019093190181FD8B7F5B
:1004700082FD8D7F80932F01809122019091230135
:1004800088379C4E34F488E79CEE90932301809348
:10049000220180912201909123018938934134F007
:1004A00088E893E1909323018093220180912401B5
:1004B0009091250188379C4E34F488E79CEE909308
:1004C0002501809324018091240190912501893890
:1004D000934134F088E893E19093250180932401BF
:1004E00020912201309123018091240190912501D6
:1004F0008217930724F41092230110922201209175
:100500002401309125018091220190912301281727
:10051000390734F488E893E190932501809324010E
:1005200020911E0130911F018091220190912301A1
:100530002817390744F48091220190912301909368
:100540001F0180931E0120911E0130911F01809197
:100550002401909125018217930744F4809124018E
:100560009091250190931F0180931E01809120019D
:10057000909121018536910534F082E390E09093CB
:100580002101809320018091200190912101181672
:10059000190634F081E090E09093210180932001CE
:1005A00080912601853618F084E68093260180919B
:1005B0002601823018F482E08093260180912A017E
:1005C0008B3F18F08AEF80932A0180912A018530B1
:1005D00018F485E080932A0180912B0190912C01E1
:1005E0008436910530F484E690E090932C0180935A
:1005F0002B0180912B0190912C018938934130F08F
:1006000088E893E190932C0180932B0180912D0138
:1006100090912E018C32914030F48CE291E09093D5
:100620002E0180932D0180912D0190912E01813119
:10063000974230F080E197E290932E0180932D0154
:1006400020912B0130912C0180912D0190912E0150
:100650008217930730F48AEF90E090932C018093F7
:100660002B0120912D0130912E0180912B01909131
:100670002C012817390750F480912B0190912C01FF
:10068000880F991F90932E0180932D0108959FEF5D
:100690009093000191E0E8CE8BE490E090931601F6
:1006A00080931501809167018E7F8093670180910F
:1006B00065018E7F8093650180B58E7F80BD80B59A
:1006C000811103C08BB78F7D8BBF8BE490E090933B
:1006D000180180931701809166018E7F80936601D7
:1006E000809164018E7F80936401909882B3811120
:1006F00003C08BB78F7E8BBFF8946FEF70E087E0FD
:1007000068DD6FEF70E085E064DDCAE0D0E070E0A6
:1007100060E088E05EDD68EC70E080E090E0B7DDEE
:100720006FEF70E088E055DD60E273E080E090E01C
:10073000AEDD219761F788ED9CE00FB6F894A8959F
:100740008093710091BD0FBE789410921A01A89504
:10075000FFCFCF9380B58E7F80BD80B5811103C060
:100760008BB78F7D8BBF909882B3811103C08BB7FD
:100770008F7E8BBF81E080935701C0915601CC0FD3
:10078000CC0FC09356018AE087DC892B19F0C26038
:10079000C093560180E080DC892B29F080915601BE
:1007A000816080935601809156018F70809356012D
:1007B000282F30E0F901EC5CFE4F8081882369F13D
:1007C000809154019091550144E0880F991F4A95FA
:1007D000E1F7822B932B9093550180935401992735
:1007E0008B329105A9F560912001709121018091D2
:1007F00000014091190120916E0130916F01082E86
:10080000000C990B4FD6642F440F770B4BD6820FF9
:10081000931F90936F0180936E0163DD6093680175
:100820007093690180936A0190936B0189B38093FF
:100830006201909A8BB780618BBF86B3809363010E
:1008400080B5816080BD8BB780628BBFCF910895EA
:10085000479719F760912001709121018091000163
:100860004091190120916E0130916F01082E000C0A
:10087000990B18D6642F440F770B14D6281B390B0D
:1008800030936F0120936E01C8CF4AE150E070E0D1
:1008900060E08AE191E0E5D570E060E087E099CC26
:1008A000CF93DF93CDB7DEB76A970FB6F894DEBF6C
:1008B0000FBECDBF6FEF70E087E08BDC6FEF70E0B5
:1008C00085E087DC6FEF70E088E083DC4AE150E090
:1008D00070E060E0CE010196B4D58B818130F9F4EF
:1008E0008AE1FE013196AAE1B1E001900D928A956C
:1008F000E1F770E060E087E06CDCAFDD80911E0125
:1009000090911F0190936F0180936E016A960FB6CC
:10091000F894DEBF0FBECDBFDF91CF91089588E27E
:1009200080931B0181E080931C0110921D011092A5
:100930001F0110921E0181E090E0909321018093AD
:10094000200110922301109222018FEF90E09093EA
:100950002501809324018AE08093260110922701CB
:10096000109228011092290180932A0184EF91E0CE
:1009700090932C0180932B018CED95E090932E01A8
:1009800080932D0110922F0170E060E088E021DC5F
:100990007CDFB3CFEF92FF920F931F93CF938C0125
:1009A000A0DC8EEA91E007DD809358018091580128
:1009B000803F59F48EEA91E0FEDCC82F81FD65DFAF
:1009C000C0FD6EDFC7FF2DC067DE80915801853105
:1009D00009F443DDC0E001501109EC2EF12CE016C2
:1009E000F106ACF48EEA91E0E6DC209158012E0D80
:1009F0003F2D311D2A31310540F4E0915801EE0DB3
:100A0000FF2DF11DE65EFE4F8083CF5FE6CF809124
:100A10005801853131F4CF911F910F91FF90EF90E4
:100A20001CCDCF911F910F91FF90EF9008951F92D1
:100A30000F920FB60F9211242F933F938F939F9392
:100A4000AF93BF9380915A0190915B01A0915C019B
:100A5000B0915D013091590126E0230F2D3768F1E7
:100A600029E8230F0396A11DB11D209359018093FE
:100A70005A0190935B01A0935C01B0935D0180915A
:100A80005E0190915F01A0916001B09161010196BA
:100A9000A11DB11D80935E0190935F01A093600141
:100AA000B0936101BF91AF919F918F913F912F9131
:100AB0000F900FBE0F901F9018950296A11DB11DAB
:100AC000D4CF1F920F920FB60F9211242F933F9302
:100AD0004F935F936F937F938F939F93AF93BF9346
:100AE000CF93EF93FF9396B380916301C091670119
:100AF000C923282F2095C223209165018223292F05
:100B000020958223C82B90936301C0FF05C0E0911C
:100B10001501F09116010995C1FF05C0E0910F0183
:100B2000F09110010995C2FF05C0E0911101F0910B
:100B300012010995C3FF05C0E0911301F091140162
:100B40000995FF91EF91CF91BF91AF919F918F91B7
:100B50007F916F915F914F913F912F910F900FBEB9
:100B60000F901F9018951F920F920FB60F9211249D
:100B70002F933F934F935F936F937F938F939F93A5
:100B8000AF93BF93CF93EF93FF9399B3809162019B
:100B9000C0916601C923282F2095C22320916401AA
:100BA0008223292F20958223C82B90936201C0FFB6
:100BB00005C0E0911701F09118010995C1FF05C02A
:100BC000E0910101F09102010995C2FF05C0E09199
:100BD0000301F09104010995C3FF05C0E0910501EF
:100BE000F09106010995C4FF05C0E0910701F0915D
:100BF00008010995C5FF05C0E0910901F0910A01BE
:100C00000995C6FF05C0E0910B01F0910C01099513
:100C1000C7FF05C0E0910D01F0910E010995FF910C
:100C2000EF91CF91BF91AF919F918F917F916F91F4
:100C30005F914F913F912F910F900FBE0F901F909A
:100C400018951F920F920FB60F9211242F933F9376
:100C50004F935F936F937F938F939F93AF93BF93C4
:100C6000CF93EF93FF93C091A3008C2F8C7019F159
:100C70008FEF8093A3018091A4019091A5019F77AC
:100C80009093A5018093A4018091A300846C80932C
:100C9000A300FF91EF91CF91BF91AF919F918F9161
:100CA0007F916F915F914F913F912F910F900FBE68
:100CB0000F901F901895C6FD28C08091A4019091B7
:100CC000A50197FD22C0C7FF6FC0C1FFAFC0209133
:100CD0009F013091A0018091A1019091A20128175C
:100CE000390708F0A1C080919F019091A0019C015B
:100CF0002F5F3F4F3093A00120939F0185589E4F57
:100D0000FC0180818093A0004FC0C0FF66C080912D
:100D1000A4019091A50197FF29C08091A401909111
:100D2000A5012091A0009695982F882797958795E3
:100D300088279370822B9093A5018093A401E09162
:100D4000A601F091A701309789F110929C011092B1
:100D50009B016091A3018091A4019091A501099547
:100D6000811124C087E08093A40093CF8091A000DC
:100D700090E09093A5018093A4018091A3018F5FDF
:100D80008093A3018091A4019091A501897F992767
:100D9000803F9105A1F68091A4019091A5019068F2
:100DA0009093A5018093A40183E0DDCFC1FF10C023
:100DB0001092A2011092A101E091AA01F091AB0161
:100DC000309709F009951092A00110929F01ECCF85
:100DD00010929E0110929D01E7CFC1FF15C0E091D6
:100DE000AC01F091AD01309709F009958FEF809338
:100DF000A3018091A4019091A5019F779093A501F3
:100E00008093A40180E443CFE091A801F091A9016F
:100E1000309761F310929C0110929B0180919D018B
:100E200090919E010995E2CF82E09DCF80919D0136
:100E300090919E01809790F480919D0190919E01E8
:100E40009C012F5F3F4F30939E0120939D01209185
:100E5000A00085589E4FFC012083A6CF86E083CF5B
:100E6000EEEAF1E01382128288EE93E0A0E0B0E0B7
:100E700084839583A683B78388E491E091838083FC
:100E80008BE791E0958784871092BC010895789450
:100E900080B7836080BF83B7877F83BF83B7887F36
:100EA000836083BF89B7816089BF8091C900887FD3
:100EB0008093C9008091CA008C7F81608093CA00B2
:100EC0008091C900877E8093C9008091C900887F86
:100ED00083608093C9008EB5887F8EBD8FB58C7F6F
:100EE00081608FBD8EB5877E8EBD8EB5887F836015
:100EF0008EBD80E18093670084EA809368008CEF68
:100F00008093660085B1887F866085B92F9A14BE6C
:100F100090E088ED0FB6F894A8958093710091B594
:100F2000977F91BD0FBE61E081E020D960E081E054
:100F3000CED862E081E01AD961E085E017D96FEF81
:100F400070E085E046D961E088E010D970E060E0AB
:100F500088E03FD961E087E009D96FEF70E087E072
:100F600038D962E080E002D962E08AE0FFD862E02E
:100F700082E0FCD895DC80911B01E091BA01F091F0
:100F8000BB01880F8093A2001092A1008FEF80A771
:100F90008CEB8093A50081E08093BC018AEC94E007
:100FA00096A785A780E092E090AB87A729EA33E077
:100FB000309318012093170180916601816080931E
:100FC00066018091640181608093640189B380939C
:100FD0006201909A8BB780618BBF3093160120938A
:100FE000150180916701816080936701809165019F
:100FF00081608093650186B38093630180B58160D1
:1010000080BD8BB780628BBF85E0B82E1FEF03E0F9
:1010100099E0A92E24E0922E31E1832E41E2742E34
:1010200051E4652ECFEFD0E062E081E09FD880915F
:101030007A018823B1F060E081E049D861E081E085
:1010400095D861E070E080E090E021D962E081E035
:101050008DD869E170E080E090E019D910927A01B2
:1010600040D920916E0130916F0180916C01909177
:101070006D01821793070CF084C080911A018027BC
:1010800080931A01209124013091250180916E01F5
:1010900090916F01281739073CF5809124019091B8
:1010A000250190936F0180936E0110926801109258
:1010B000690110926A0110926B0180912F0182FFE9
:1010C00007C080911901813009F057C010931901B0
:1010D00080912F0181FF08C080912201909123010E
:1010E00090936F0180936E0180911A0180FF35C04B
:1010F000F8D8C0906801D0906901E0906A01F09042
:101100006B0120912601AB01BC014C195D096E09F0
:101110007F09822F90E0B0E0A0E084179507A60732
:10112000B707D8F481E080937A0180916E019091A5
:101130006F0190931F0180931E0180916E01909129
:101140006F0190936D0180936C0110926801109271
:10115000690110926A0110926B01809179018230CD
:1011600009F4DEC008F04DC0882309F485C0813041
:1011700009F4AAC01092790191C081E0809319010D
:10118000A7CF20916E0130916F01281739070CF01D
:10119000ABCF80911A018B2580931A0120912201F7
:1011A0003091230180916E0190916F018217930716
:1011B0000CF09ACF809122019091230190936F01BE
:1011C00080936E01109268011092690110926A0179
:1011D00010926B0180912F0182FF06C0809119014E
:1011E000813059F41093190180912F0181FF7CCF38
:1011F000809124019091250173CF81E080931901A2
:10120000F3CF833009F4C2C0843009F0B3CF69D87A
:10121000C0907001D0907101E0907201F090730164
:1012200020912D0130912E01AB01BC014C195D09BB
:101230006E097F09C901B0E0A0E084179507A607F1
:10124000B70708F0DBC080911A0186FD0AC08091C3
:101250001A01862580931A0181E080937A01109209
:10126000740110927901109275011092760110921A
:1012700077011092780112C082E00ED7892B71F0AD
:10128000E0D7609375017093760180937701909316
:10129000780181E080937901109274018091270197
:1012A000BE01681B710988E094D780912801BE01B6
:1012B000681B710987E08DD780912901BE01681BE9
:1012C000710985E086D7B0CEBCD720912A01C090A5
:1012D0007501D0907601E0907701F0907801AB0134
:1012E000BC014C195D096E097F09822F90E0B0E0C6
:1012F000A0E084179507A607B70780F682E0CCD652
:10130000892B09F437CF82E080937901EAD7609383
:101310007001709371018093720190937301BECF3D
:1013200082E0BAD6892B31F18091740181110EC00F
:1013300080911A0183FD0AC080911A018A25809349
:101340001A0181E080937A0180937401CAD7C0901A
:101350007001D0907101E0907201F09073016C19EE
:101360007D098E099F09613177428105910508F455
:1013700095CF92D966D7609375017093760180936B
:101380007701909378010093790188CF5AD7C09064
:101390007501D0907601E0907701F090780120916E
:1013A0002A01AB01BC014C195D096E097F09822F2E
:1013B00090E0B0E0A0E084179507A607B70708F013
:1013C0006DCF82E069D6892B21F082E0809379018C
:1013D00065CF37D720912A01AB01BC014C195D09BB
:1013E0006E097F09822F90E0B0E0A0E08417950796
:1013F000A607B70750F79092790150CF72D7209186
:101400002B0130912C01AB01BC014C195D096E0917
:101410007F09C901B0E0A0E084179507A607B707C8
:1014200040F480911A0185FD1CCF80911A01872517
:1014300011CF80911A0184FD14CF80911A01882563
:1014400009CFDC01CB01FC01E199FECF06C0FFBB57
:10145000EEBBE09A31960DB20D9241505040B8F774
:101460000895DC01A40FB51F4150504040F0CB015E
:10147000840F951F2E9105D041505040D8F7089504
:10148000262FE199FECF9FBB8EBBE09A01970DB24C
:10149000021639F01CBA2DBB0FB6F894E29AE19A05
:1014A0000FBE08950024552704C0080E591F880F49
:1014B000991F009729F076956795B8F37105B9F7EC
:1014C000802D952F0895EE0FFF1F0590F491E02DCC
:0614D0000994F894FFCF1F
:1014D600014B004B004B004B004B004B004B004BAD
:1014E600004B004B004B004B0001002801000000A0
:1014F60001000000FF000A0000000AF401DC0500FC
:10150600FFFFFFFF000101000100000101000001D3
:101516000001010000000000AD017D01F501DB01C5
:04152600C601C50134
:00000001FF
